:100000000C94EF170C9419180C9419180C941918D7
:100010000C9419180C9419180C9419180C9419189C
:100020000C9419180C9419180C9419180C9419188C
:100030000C9419180C941A2A0C9419180C94191869
:100040000C9419180C94D6240C9437CC0C941918D1
:100050000C94D28B0C94C88B0C9419180C9419180E
:100060000C9419180C9419180C9419180C9419184C
:100070000C9419180C9419180C9419180C9419183C
:100080000C9462850C9419180C9419184E414E4921
:100090004E495459494E46CDCCCC3D0AD7233C1746
:1000A000B7D13877CC2B329595E6241FB14F0A0093
:1000B0000020410000C84200401C4620BCBE4CCA83
:1000C0001B0E5AAEC59D7400407A10F35A00A07200
:1000D0004E18090010A5D4E80000E8764817000083
:1000E000E40B54020000CA9A3B000000E1F5050051
:1000F0000080969800000040420F000000A086019A
:10010000000000102700000000E803000000006469
:1001100000000000000A00000000000100000000D4
:10012000002C76D888DC674F0823DFC1DFAE59E1A9
:10013000B1B796E5E3E453C63AE651997696E8E618
:10014000C28426EB898C9B62ED407C6FFCEFBC9CEB
:100150009F40F2BAA56FA5F490055A2AF75C936BFD
:100160006CF9676DC11BFCE0E40D47FEF520E6B5B8
:1001700000D0ED902E0300943577050080841E0892
:100180000000204E0A000000C80C333333330F98B0
:100190006E12831141EF8D2114893BE65516CFFE77
:1001A000E6DB18D1844B381BF77C1D901DA4BBE403
:1001B00024203284725E228100C9F124ECA1E53D45
:1001C0002741425300504C41005072696E742041E7
:1001D000626F72746564004D3235005061757369E9
:1001E0006E672E2E2E004D323400454550524F4D35
:1001F0002056657273696F6E204572726F7200458A
:100200004550524F4D20496E646578204572726F9B
:100210007200454550524F4D204352432045727263
:100220006F72003F0049676E6F72650052657365BB
:100230007400496E697469616C697A65204545503E
:10024000524F4D0046696C2E204469612E004520B6
:10025000696E206D6D5E33004D3330332055312093
:100260004525692053256900504944204175746F24
:1002700074756E65202A005049442D44202A005090
:1002800049442D49202A005049442D50202A00205D
:10029000082046616374002008204D617800200822
:1002A000204D696E004F6666004F6E004175746F99
:1002B00074656D7000452073746570732F6D6D00EB
:1002C0005A2053746570732F6D6D005920537465F7
:1002D00070732F6D6D00582053746570732F6D6DA2
:1002E00000416476616E6365642053657474696E61
:1002F00067730046696C616D656E740054656D705E
:10030000657261747572650053746570732F6D6DDD
:1003100000436F6E66696775726174696F6E005332
:10032000746F77004465706C6F790053572D4D6F73
:1003300064650053656C662D546573740052657373
:10034000657400436F6E66696775726174696F6E7C
:1003500000526573746F72652044656661756C74D4
:1003600073004C6F61642053657474696E67730029
:1003700053746F72652053657474696E67730042BD
:100380004C546F7563680050726F6265205A204F3D
:10039000666673657400416476616E6365642053BC
:1003A000657474696E6773004D61696E0031323532
:1003B0000035004245443A204550434F53203130E8
:1003C000304B0052756E61776179205761746368B4
:1003D0003A204F4E004D61782054656D70003237E1
:1003E00035004D696E2054656D7000350045313A19
:1003F000204550434F53203130304B00505355006F
:1004000047656E657269630050726F746F636F6CDD
:1004100000312E30004261756400313135323030A8
:10042000004D656C7A692028437265616C69747946
:10043000290042696C696E656172204C6576656C55
:10044000696E670045787472756465727300310077
:100450006D61726C696E66772E6F726700456E64AF
:1004600065722D352050726F00323032312D3036AA
:100470002D323700322E302E392E31004D61726C04
:10048000696E00546865726D6973746F72730042AF
:100490006F61726420496E666F005072696E746598
:1004A0007220496E666F004D61696E003F004261C7
:1004B000636B0053746F7000417474616368204D06
:1004C00065646961004D3231005072696E74206656
:1004D000726F6D204D656469610052656C65617372
:1004E00065204D65646961004D323200436F6E6670
:1004F000696775726174696F6E0054656D706572BD
:100500006174757265004D6F74696F6E005265732A
:10051000756D65205072696E740041626F7574204C
:100520005072696E7465720054756E650053746F15
:1005300070205072696E740050617573652050723E
:10054000696E7400496E666F2053637265656E0054
:100550003F005374617274205072696E740043617D
:100560006E63656C005072696E740043616E6E6FED
:100570007420656E746572207375626469723A20C6
:1005800000022E2E000152656672657368004D618F
:10059000696E002100486F74656E6420746F6F206F
:1005A000636F6C64004261636B0050726F636565DA
:1005B00064004D6F74696F6E0044697361626C65AD
:1005C000205374657070657273004D383400417546
:1005D000746F20486F6D6500473238004D61696E59
:1005E0000050726568656174202420456E64005077
:1005F0007265686561742024204265640054656DED
:10060000706572617475726500C501C101436F6FD9
:100610006C646F776E0050726568656174202400A9
:1006200046616E20537065656400426564004E6FDC
:100630007A7A6C65004D61696E004261627973740B
:100640006570205A00466C6F770046616E205370CB
:1006500065656400426564004E6F7A7A6C6500538C
:1006600070656564004D61696E00486F6D696E6705
:10067000204661696C6564006F70656E0054524974
:10068000474745524544003A20007A5F6D696E0045
:10069000795F6D696E00785F6D696E005265706F8D
:1006A0007274696E6720656E6473746F7020737402
:1006B000617475730A0020746F6F206C6F6E672011
:1006C000657874727573696F6E2070726576656E89
:1006D0007465640A0020636F6C64206578747275B9
:1006E00073696F6E2070726576656E7465640A005A
:1006F000486F6D65202573257325732046697273D5
:1007000074000000000000000000000000005761BD
:10071000726E696E673A20486F6D696E6720427528
:100720006D702044697669736F72203C20310A0035
:10073000020204000066430000614300009643008B
:1007400000A0400000A04000000040000066430000
:10075000006143000096430000000000000000001C
:1007600000000053657474696E67732053746F7270
:10077000656400290A002062797465733B20637206
:1007800063200053657474696E67732053746F72CD
:10079000656420280048617264636F646564204466
:1007A000656661756C742053657474696E67732037
:1007B0004C6F616465640A003B20003A0A00202007
:1007C0004D3835312058005A2D50726F6265204FD8
:1007D00066667365740020440020490020204D3374
:1007E00030312050005049442073657474696E673D
:1007F000733A0020460020420020480020204D315E
:1008000034352053004D6174657269616C206865F0
:100810006174757020706172616D65746572733A90
:1008200000204A002020473239205720490020204C
:100830004D3432302053004175746F20426564207E
:100840004C6576656C696E673A0020204D32303613
:10085000205800486F6D65206F66667365743A00B6
:10086000204A0020530020204D32303520420041E4
:100870006476616E6365643A20423C6D696E5F73B5
:1008800065676D656E745F74696D655F75733E2035
:10089000533C6D696E5F66656564726174653E2088
:1008A000543C6D696E5F74726176656C5F666565F8
:1008B00064726174653E204A3C6A756E635F64656C
:1008C000763E0020540020520020204D323034204B
:1008D0005000416363656C65726174696F6E2028B6
:1008E000756E6974732F7332293A20503C707269A7
:1008F0006E745F616363656C3E20523C7265747216
:100900006163745F616363656C3E20543C74726123
:1009100076656C5F616363656C3E0020204D32300C
:10092000312058004D6178696D756D2041636365B4
:100930006C65726174696F6E2028756E6974732FAF
:100940007332293A0020204D3230332058004D6157
:1009500078696D756D206665656472617465732074
:1009600028756E6974732F73293A00537465707318
:100970002070657220756E69743A00204400202052
:100980004D3230302053002044697361626C6564DD
:100990000A0046696C616D656E74207365747469D4
:1009A0006E67733A0020204D3134392043203B20BC
:1009B000556E69747320696E2043656C7369757335
:1009C0000A0020286D6D2900202047323120202088
:1009D000203B20556E69747320696E206D6D004553
:1009E0004550524F4D206461746173697A6520658A
:1009F00072726F722E0A00290A0020627974657380
:100A00003B2063726320002073746F7265642073EF
:100A1000657474696E677320726574726965766552
:100A200064202800202863616C63756C61746564C0
:100A300029210A0020213D2000454550524F4D20DC
:100A4000435243206D69736D61746368202D2028C3
:100A500073746F7265642920002053697A653A20A7
:100A600000496E6465783A20000000FA430000FAFD
:100A7000430000A0400000C8410000A0420000A0C8
:100A800042000048440000BA42F4010000F40100B2
:100A9000006400000088130000204D61726C696ED4
:100AA0003D563834290A00454550524F4D20766551
:100AB0007273696F6E206D69736D6174636820284D
:100AC000454550524F4D3D0024F4D43050C38E2044
:100AD000C2A24017828B7011127A910D816CD90AD3
:100AE000A861E108C7586607615143061E4B5D05C2
:100AF000C145A7041A411104093D98037139310316
:100B00004036DB0265339102D4305402802E1D0240
:100B1000632CEE01752AC501B028A00110278101C0
:100B20008F2564012B244B01E0223401AC211F01ED
:100B30008D200D01801FFC00841EED00971DDF003D
:100B4000B81CD200E61BC600201BBC00641AB20011
:100B5000B219A8000A19A0006A189900D1179100CB
:100B600040178B00B516840031167E00B31579004E
:100B70003A157300C7146F0058146A00EE1366002C
:100B80008813630025135E00C7125B006C125700C8
:100B900015125400C111510070114F0021114B006A
:100BA000D61049008D104700461044000210420044
:100BB000C00F4000800F3E00420F3C00060F3B007C
:100BC000CB0E3800930E37005C0E3500270E340034
:100BD000F30D3200C10D3100900D3000600D2E007C
:100BE000320D2D00050D2C00D90C2B00AE0C290068
:100BF000850C29005C0C2700350C27000E0C260004
:100C0000E80B2400C40B2400A00B23007D0B230061
:100C10005A0B2100390B2100180B2000F80A1F0085
:100C2000D90A1E00BB0A1E009D0A1D00800A1D0075
:100C3000630A1C00470A1B002C0A1B00110A1A0039
:100C4000F7091A00DD091900C4091900AB091900D8
:100C5000920917007B091800630917004C09160058
:100C600036091600200916000A091500F5081500B6
:100C7000E0081400CC081400B8081400A4081400FC
:100C8000900813007D0812006B081300580812002A
:100C90004608120034081100230811001208110040
:100CA00001081100F0071000E0071000D007100045
:100CB000C0071000B0070F00A107100091070E0039
:100CC00083070F0074070F0065070E0057070E001B
:100CD00049070E003B070D002E070E0020070D00F0
:100CE00013070D0006070D00F9060C00ED060D00B8
:100CF000E0060C00D4060C00C8060C00BC060C0074
:100D0000B0060C00A4060B0099060C008D060B0023
:100D100082060B0077060B006C060B0061060A00CA
:100D200057060B004C060A0042060A0038060A0065
:100D30002E060A0024060A001A060A0010060900F8
:100D400007060A00FD050900F4050900EB05090086
:100D5000E2050900D9050900D0050900C705090009
:100D6000BE050900B5050800AD050800A505090088
:100D70009C050800940508008C05080084050800FF
:100D80007C050800740508006C050700650508006F
:100D90005D050700560508004E05070047050700DA
:100DA0004005080038050700310507002A0507003F
:100DB000230507001C050600160507000F050700A0
:100DC0000805060002050700FB040600F5040700FD
:100DD000EE040600E8040600E2040700DB04060057
:100DE000D5040600CF040600C9040600C3040600AB
:100DF000BD040600B7040600B1040500AC040600FB
:100E0000A6040600A00405009B0406009504050046
:100E1000900406008A04050085040500800406008D
:100E20007A04050075040500700405006B040500D4
:100E300066040500610405005C0405005704050014
:100E4000520405004D040500480405004304050054
:100E50003E0404003A040500350405003004040093
:100E60002C04050027040400230405001E040400CC
:100E70001A04040016040500110404000D04040003
:100E8000090405000404040000040400FC03040039
:100E9000F8030400F4030400F0030400EC0304006E
:100EA000E8030400E4030400E0030400DC0304009E
:100EB000D8030400D4030400D0030400CC030400CE
:100EC000C8030300C503030024F404D9201BC40C89
:100ED0005C0E9804C4095F0265077101F405F9000E
:100EE000FB04B30048048700C103690058035500A0
:100EF00003034500BE023A008402310053022A0077
:100F00002902250004022000E4011C00C801190088
:100F1000AF01170098011400840113007101100043
:100F20006101100051010E0043010D0036010B005C
:100F30002B010B0020010B00150109000C01090019
:100F400003010800FB000800F3000800EB000700A5
:100F5000E4000600DE000600D8000600D20006000D
:100F6000CC000500C7000500C2000500BD0004005C
:100F7000B9000400B5000400B1000400AD00040095
:100F8000A9000400A5000300A20003009F000400C4
:100F90009B000300980003009500020093000300EB
:100FA000900003008D0002008B0003008800020007
:100FB0008600020084000300810002007F0002001E
:100FC0007D0002007B000200790002007700010032
:100FD000760002007400020072000100710002003D
:100FE0006F0002006D0001006C0002006A00010049
:100FF0006900020067000100660001006500010051
:101000006400020062000100610001006000010054
:101010005F0002005D0001005C0001005B00010058
:101020005A0001005900010058000100570001005A
:10103000560001005500010054000100530000005B
:101040005300010052000100510001005000010056
:101050004F0001004E0000004E0001004D00010055
:101060004C0001004B0000004B0001004A00010051
:10107000490001004800000048000100470001004D
:101080004600000046000100450000004500010048
:101090004400010043000000430001004200000042
:1010A0004200010041000000410001004000010039
:1010B0003F0000003F0001003E0000003E00010034
:1010C0003D0000003D0001003C0000003C0000002D
:1010D0003C0001003B0000003B0001003A00000022
:1010E0003A0001003900000039000100380000001A
:1010F0003800000038000100370000003700010010
:101100003600000036000000360001003500000007
:1011100035000000350001003400000034000000FC
:1011200034000100330000003300000033000100F0
:1011300032000000320000003200010031000000E7
:1011400031000000310001003000000030000000DC
:10115000300001002F0000002F0000002F000000D1
:101160002F0001002E0000002E0000002E000100C4
:101170002D0000002D0000002D0000002D000100BA
:101180002C0000002C0000002C0000002C000100AE
:101190002B0000002B0000002B0000002B000100A2
:1011A0002A0000002A0000002A0000002A00010096
:1011B000290000002900000029000000290000008B
:1011C000290001002800000028000000280000007D
:1011D0002800000028000100270000002700000070
:1011E0002700000027000000270001002600000063
:1011F0002600000026000000260000002600010056
:10120000250000002500000025000000250000004A
:10121000250000002500010024000000240000003B
:10122000240000002400000024000100230000002E
:101230002300000023000000230000002300000022
:101240002300000023000100220000002200000013
:101250002200000022000000220000002200010005
:1012600021000000210000002100000021000000FA
:1012700021000000210000002100010020000000EA
:1012800020000000200000002000000020000000DE
:101290002000000020000000200001001F000000CE
:1012A0001F0000001F0000001F0000001F000000C2
:1012B0001F0000001F0001001E0000001E000000B3
:1012C0001E0000001E000000043700001E29000060
:1012D000511B00005810000010090000CC04000051
:1012E000780200004101000020436F756E742058A1
:1012F0003A0042656400453100626564002C207349
:10130000797374656D2073746F7070656421204803
:1013100065617465725F49443A200048656174698B
:101320006E67204661696C65640048656174696E2A
:1013300067206661696C6564004572723A204D41B0
:101340005854454D50004D415854454D50207472ED
:1013500069676765726564004572723A204D494E4F
:1013600054454D50004D494E54454D5020747269BE
:1013700067676572656400544845524D414C205280
:10138000554E4157415900546865726D616C205249
:10139000756E6177617900202F002042403A00206D
:1013A000403A00434F4D4D554E49434154494F4EED
:1013B0000044525952554E004552524F5253004923
:1013C0004E464F004543484F0053544F50504544FC
:1013D0002E20005072696E7465722073746F707085
:1013E00065642064756520746F206572726F727316
:1013F0002E2046697820746865206572726F7220AD
:10140000616E6420757365204D39393920746F2001
:10141000726573746172742E202854656D706572E4
:1014200061747572652069732072657365742E200E
:1014300053657420697420616674657220726573E7
:1014400074617274696E67290A004E6F2043686583
:10145000636B73756D2077697468206C696E6520A5
:101460006E756D6265722C204C617374204C696ED0
:10147000653A20004E6F20436865636B73756D207D
:1014800077697468206C696E65206E756D6265722F
:101490002C204C617374204C696E653A200063689F
:1014A00065636B73756D206D69736D617463682C12
:1014B000204C617374204C696E653A20004C696E53
:1014C00065204E756D626572206973206E6F7420A1
:1014D0004C617374204C696E65204E756D62657247
:1014E0002B312C204C617374204C696E653A2000BE
:1014F0004D3131300053657269616C2073746174D1
:101500007573206D69736D617463680A00534420BC
:1015100072656164206572726F720A002121204B2E
:10152000494C4C2063617573656420627920746F47
:101530006F206D75636820696E61637469766520DC
:1015400074696D65202D2063757272656E742063F9
:101550006F6D6D616E643A2000627573793A207028
:10156000617573656420666F7220696E7075740AA8
:1015700000627573793A2070617573656420666FD7
:101580007220757365720A00627573793A20707201
:101590006F63657373696E670A004D6564696120E6
:1015A000496E73657274656400506C656173652083
:1015B0005265736574005052494E5445522048415B
:1015C0004C5445440025533A202553004B494C4C7C
:1015D00045442E20005072696E7465722068616CFB
:1015E0007465642E206B696C6C28292063616C6CB7
:1015F0006564210A0053544F505045442E2000503A
:1016000072696E7465722073746F707065642064A3
:10161000756520746F206572726F72732E20466933
:101620007820746865206572726F7220616E642024
:10163000757365204D39393920746F207265737464
:101640006172742E202854656D70657261747572B4
:10165000652069732072657365742E20536574204C
:101660006974206166746572207265737461727446
:10167000696E67290A006563686F3A004572726F88
:10168000723A0042696C696E656172204C657665DC
:101690006C696E6720477269643A0A002121205301
:1016A000544F502063616C6C6564206265636175A2
:1016B0007365206F6620424C546F756368206572B5
:1016C000726F72202D207265737461727420776955
:1016D0007468204D3939390A0021212053544F5064
:1016E0002063616C6C65642062656361757365205D
:1016F0006F6620424C546F756368206572726F721A
:10170000202D20726573746172742077697468206B
:101710004D3939390A004F46460A00466164652052
:101720004865696768742000426564204C65766589
:101730006C696E6720004661696C656420746F2077
:10174000656E61626C6520426564204C6576656CEF
:10175000696E670A00496E76616C6964206D657315
:10176000682E0A0050726F62696E6720506F696E52
:10177000740025532025692F2569002E0A002F00AB
:1017800050726F62696E67206D65736820706F6953
:101790006E742000202844525952554E2900473279
:1017A00039204175746F20426564204C6576656C04
:1017B000696E67003F20284C2C522C462C42292071
:1017C0006F7574206F6620626F756E64732E0A00E9
:1017D0003F2856296572626F7365206C6576656C6B
:1017E00020696D706C61757369626C652028302D9D
:1017F00034292E0A00426164205A2076616C756596
:101800000A004E6F2062696C696E656172206772B2
:1018100069640A0020496E76616C69642065787499
:1018200072756465722000536C6565702E2E2E00F3
:101830005A2050726F626520506173742042656453
:101840000A005A2050726F62652050617374204202
:10185000656400205A3A200020593A20004265640D
:1018600020583A20004D65736820706F696E7420AF
:101870006F7574206F662072616E67650A00436C35
:1018800069636B20746F20526573756D652E2E2E03
:10189000004E6F204D6F76652E00456E64206669A0
:1018A0006C65206C6973740A00426567696E206616
:1018B000696C65206C6973740A004E6F206D6564F5
:1018C00069610A00286E6F2066696C65290043759E
:1018D0007272656E742066696C653A20005344200C
:1018E0007072696E74696E67206279746520004E4B
:1018F0006F74205344207072696E74696E670A00B9
:101900002E0A0044656C6574696F6E206661696CAF
:1019100065642C2046696C653A200046696C652038
:1019200064656C657465643A002569730025696DAA
:1019300020256973002569682025696D2025697354
:1019400000256964202569682025696D2025697353
:101950000025697920256964202569682025696D3D
:1019600020256973005072696E742074696D653A40
:1019700020006F6B006F666600C413BF13B813B10D
:1019800013A31344454255473A004D313132205399
:10199000687574646F776E004D31313320530045A4
:1019A0006E6465722D352050726F204F46462E00B2
:1019B0004D4541545041434B00434F4F4C45525FBE
:1019C00054454D5045524154555245004348414DB0
:1019D0004245525F54454D50455241545552450081
:1019E000424142595354455050494E470041524399
:1019F00053004D4F54494F4E5F4D4F444553005493
:101A00004845524D414C5F50524F54454354494F05
:101A10004E004C4F4E475F46494C454E414D4500A8
:101A20004155544F5245504F52545F53445F5354A5
:101A3000415455530053445F575249544500524551
:101A400050454154005344434152440050524F4D7D
:101A500050545F535550504F525400484F53545FA9
:101A6000414354494F4E5F434F4D4D414E44530007
:101A7000454D455247454E43595F5041525345529B
:101A800000434153455F4C494748545F42524947E0
:101A900048544E45535300544F47474C455F4C49BB
:101AA0004748545300534F4654574152455F504F97
:101AB000574552004255494C445F50455243454EAC
:101AC00054004C4556454C494E475F4441544100F3
:101AD0005A5F50524F42450052554E4F55540041A7
:101AE00055544F4C4556454C005052494E545F4A50
:101AF0004F420050524F4752455353004155544FA7
:101B00005245504F52545F54454D50004155544F2B
:101B10005245504F52545F504F5300564F4C554D05
:101B2000455452494300454550524F4D0042494E9D
:101B30004152595F46494C455F5452414E534645C8
:101B4000520053455249414C5F584F4E5F584F46E3
:101B500046004649524D574152455F4E414D453A28
:101B60004D61726C696E20322E302E392E31202854
:101B700053657020313420323032312031393A31DE
:101B8000353A33302920534F555243455F434F4434
:101B9000455F55524C3A6769746875622E636F6D84
:101BA0002F4D61726C696E4669726D776172652F37
:101BB0004D61726C696E2050524F544F434F4C5FD1
:101BC00056455253494F4E3A312E30204D414348ED
:101BD000494E455F545950453A456E6465722D35FE
:101BE0002050726F2045585452554445525F434F20
:101BF000554E543A3120555549443A63656465322F
:101C00006132662D343161322D343734382D3962EA
:101C100031322D6335356336326633363766660AC0
:101C2000002F2F004D31343520533C696E646578A8
:101C30003E206F7574206F662072616E6765202884
:101C4000302D31290A00205200416363656C6572B2
:101C50006174696F6E3A2050003F4A206F7574209E
:101C60006F662072616E67652028302E30312074D7
:101C70006F20302E33290A004D3230362058004F65
:101C80004646004F4E0020580020204D61783A20F3
:101C900000200020204D696E3A2000536F667420AA
:101CA000656E6473746F70733A200046523A002078
:101CB000466C6F773A20003A200020536572766FA9
:101CC0002000206F7574206F662072616E67650A50
:101CD00000536572766F200020643A0020693A0054
:101CE00020703A00496E76616C6964206578747280
:101CF000756465720A0064697300656E0043290AA1
:101D00000061626C656420286D696E2074656D7079
:101D10002000436F6C64206578747275646573206D
:101D200061726520004D34323120696E636F7272CA
:101D300065637420706172616D657465722075737E
:101D40006167650A004D65736820706F696E742065
:101D50006F7574206F662072616E67650A004F664A
:101D60006673657473204170706C696564004572B8
:101D7000723A20546F6F206661722100546F6F2099
:101D80006661722066726F6D207265666572656E3F
:101D9000636520706F696E740A00454550524F4D5F
:101DA000204F4B0A00290A0020746F20003F5A2060
:101DB0006F7574206F662072616E67652028002938
:101DC0000A0020746F20003F59206F7574206F66E1
:101DD0002072616E676520282D00290A0020746F2B
:101DE00020003F58206F7574206F662072616E6707
:101DF0006520282D0050726F6265204F66667365FE
:101E0000742058004D383400446F6E65207072693C
:101E10006E74696E672066696C650A004D3737001D
:101E20004D333100496E76616C6964206578747257
:101E3000756465720A004361703A0020573A0043A6
:101E40006F6F6C696E672E2E2E0048656174696E27
:101E5000672E2E2E00452025530020573A0042655C
:101E60006420436F6F6C696E672E2E2E004265648E
:101E70002048656174696E672E2E2E0023646566A6
:101E8000696E652044454641554C545F004B6420C3
:101E9000004B6920004B702000504944204175746C
:101EA0006F74756E652066696E697368656421205C
:101EB00050757420746865206C617374204B702CAD
:101EC000204B6920616E64204B6420636F6E7374D5
:101ED000616E74732066726F6D2062656C6F77201F
:101EE000696E746F20436F6E66696775726174699D
:101EF0006F6E2E680A00504944204175746F7475E6
:101F00006E65206661696C6564212074696D656F1A
:101F100075740A00504944204175746F74756E657C
:101F2000206661696C6564212054656D706572611D
:101F30007475726520746F6F20686967680A002085
:101F40004B643A2000204B693A2000204B703A2025
:101F50000020436C617373696320504944200A0078
:101F60002054753A2000204B753A2000206D61788E
:101F70003A2000206D696E3A200020643A2000204B
:101F8000626961733A2000504944204175746F744E
:101F9000756E652073746172740A00504944204163
:101FA00075746F74756E65206661696C6564212057
:101FB00054656D706572617475726520746F6F2001
:101FC000686967680A00504944204175746F7475E8
:101FD0006E65206661696C656421204261642068D9
:101FE00065617465722069640A0050494420417536
:101FF000746F74756E65004572723A207574663838
:1020000020666F6E74206E6F7420696E69746961EA
:102010006C697A65642E004572723A207574663870
:1020200020666F6E74206E6F7420696E69746961CA
:102030006C697A65642E004572723A207574663850
:1020400020666F6E74206E6F7420696E69746961AA
:102050006C697A65642E0042656400456E636C6F3E
:1020600073757265002568753A25303268750025EC
:10207000303268753A2530326875002568756420FD
:1020800025303268753A25303268750020202020CE
:102090002020200020202020001FE02010201020E1
:1020A0001010201020201020103030084004800331
:1020B000001FE03FF03FF03FF01FE01FE03FF03F28
:1020C000F03FF00FC0078003003FFFF03800703092
:1020D000FC3020FC102078102030102C00D02E3145
:1020E000D02F7BD02F7BD02E31D02C00D0203010A1
:1020F00020781020FC1030FC303800703FFFF03F9B
:10210000FFF03800703186302387102787902F87A3
:10211000D02F03D0203010207810207810203010DD
:102120002F03D02F87D02787902387103186303810
:1021300000703FFFF01FFFF81FFFF8041040020877
:1021400020020820041040082080104100104100A7
:102150000820800410400000001FFFF81FFFF81E39
:1021600000800078100080004010A39960701CD49B
:10217000A580081094BD0F081094A100481E939DDF
:10218000003000000000000000000000000380009C
:10219000000002400000000256600000039890001A
:1021A0000002109000000210900000021060000079
:1021B0000C0F00FE07022503BB017FFE08FE08FE90
:1021C00005080806000040F0C888889878100508BF
:1021D00008060000C0F88888888888F80505050684
:1021E00000012030F830200508080600002070F8B3
:1021F00020202020E00509090600FF2070A8A8B8CB
:1022000088887020070505070001D86C366CD80552
:1022100009090600FFF8A88888888888A8F8050AB0
:102220000A0600FE205050505088A8A8887003036A
:102230000306000340A040FFFFFFFFFFFFFFFFFF7B
:10224000FFFFFFFFFFFFFFFFFFFFFFFFFF0000009B
:102250000605FF010707060200808080808000805D
:10226000030303060105A0A0A00506060600005012
:10227000F85050F8500509090600FF2070A8A0701A
:1022800028A87020050707060000C8C8102040983D
:102290009805070706000040A0A040A89068010329
:1022A000030602058080800309090601FF204040E3
:1022B0008080804040200309090601FF80404020C3
:1022C000202040408005070706000020A8702070ED
:1022D000A8200505050600012020F82020020303A0
:1022E0000601FFC04080050101060003F80202025A
:1022F000060100C0C00507070600000810102040B6
:102300004080050707060000708898A8C8887003F9
:10231000070706010040C040404040E005070706AF
:102320000000708808102040F8050707060000F834
:10233000081030088870050707060000103050901C
:10234000F81010050707060000F880F008088870EC
:10235000050707060000304080F0888870050707F1
:10236000060000F8081010202020050707060000CE
:102370007088887088887005070706000070888854
:1023800078081060020505060100C0C000C0C00248
:1023900006060601FFC0C000C04080030505060117
:1023A000012040804020050303060002F800F803E6
:1023B0000505060101804020408005070706000052
:1023C000708810202000200507070600007088B8DC
:1023D000A8B88070050707060000708888F888880C
:1023E00088050707060000F04848704848F00507D0
:1023F0000706000070888080808870050707060047
:1024000000F04848484848F0050707060000F880F3
:1024100080F08080F8050707060000F88080F080D3
:102420008080050707060000708880809888700506
:102430000707060000888888F88888880307070649
:102440000100E04040404040E0050707060000383A
:102450001010101090600507070600008890A0C0BB
:10246000A09088050707060000808080808080F8A3
:1024700005070706000088D8A88888888805070708
:102480000600008888C8A898888805070706000005
:1024900070888888888870050707060000F088889B
:1024A000F080808005070706000070888888A89063
:1024B00068050707060000F08888F0A090880507E7
:1024C00007060000708880700888700507070600FE
:1024D00000F820202020202005070706000088881B
:1024E00088888888700507070600008888888850D3
:1024F000502005070706000088888888A8A850058E
:1025000007070600008888502050888805070706BE
:10251000000088885020202020050707060000F8CA
:102520000810204080F80309090601FFE080808040
:1025300080808080E0050707060000804040201072
:1025400010080309090601FFE02020202020202098
:10255000E00503030600052050880501010600FE82
:10256000F803030306010580402005050506000069
:1025700070087888780507070600008080F0888852
:1025800088F0050505060000708080887005070743
:102590000600000808788888887805050506000088
:1025A0007088F08070050707060000304840E04062
:1025B00040400507070600FE708888887808700587
:1025C00007070600008080F08888888803070706D0
:1025D00001004000C0404040E00409090601FE102F
:1025E0000030101010109060050707060000808072
:1025F0008890E09088030707060100C040404040F3
:1026000040E0050505060000D0A8A8A8A805050516
:10261000060000B0C8888888050505060000708897
:102620008888700507070600FEF0888888F080809B
:102630000507070600FE78888888780808050505DC
:10264000060000B0C880808005050506000078807F
:102650007008F00507070600002020F82020201849
:1026600005050506000088888898680505050600A8
:102670000088888850200505050600008888A8A8DD
:1026800050050505060000885020508805070706FC
:1026900000FE88888850204080050505060000F867
:1026A000102040F80309090601FF20404040804007
:1026B0004040200109090602FF80808080808080E0
:1026C00080800309090601FF8040404020404040CF
:1026D0008005030306000248A890FF7C3C3E5E2B69
:1026E0003D3F2F5B5D3B2C2A225C0043616E6E6F89
:1026F00074206F70656E2073756264697220005378
:10270000442063617264206F6B0A006F70656E52C3
:102710006F6F74206661696C65640A00766F6C7512
:102720006D652E696E6974206661696C65640A0066
:102730004E6F20534420636172640A000A4D3234A4
:10274000004D3233202573002E0A006F70656E2015
:102750006661696C65642C2046696C653A200046A8
:10276000696C652073656C65637465640A00205349
:10277000697A653A200046696C65206F70656E6500
:10278000643A2000454E4420535542524F55544917
:102790004E450A002220706F73002220706172651E
:1027A0006E743A2200535542524F5554494E4520BB
:1027B00043414C4C207461726765743A2200537532
:1027C0006263616C6C204F766572666C6F77004552
:1027D00078636565646564206D6178205355425265
:1027E0004F5554494E452064657074683A005772DD
:1027F0006974696E6720746F2066696C653A2000A1
:10280000667265736800646F696E67002066696C44
:10281000653A20004E6F7720002F6175746F256335
:102820002E6700FFFFFFFFEFFFFFFFFFFFFFFFFF30
:10283000FFFFEFEFFFFFFFFFFFFFFFFFFFE7DFFF00
:10284000FFFFFFFFFFFFFFFFE7DFFFFFFFFFFFFFD0
:10285000FFFFFFE3DFFFFFFFFFFFFFFFFFFFF3CF00
:10286000FFFFFFFFFFFFFFFFE1E1CFFFFFFFFFFFE4
:10287000FFFE78000003DDFFFFFFFFFEFF807E000C
:1028800001EEFFFFFFFFFE7DCFFC0000F77FFFFFA3
:10289000FFFF8E060000007BBFFFFFFFFFC00000B0
:1028A00000007DDFFFFFFFFFFC01FE00003EE7FFB1
:1028B000FFFFFFFFFFFC00031F73FFFFFFFFFFFF92
:1028C000F800018F81FFFFFFFFFFFFE0000083F9A9
:1028D000FFFFFFFFFFFF00FC0000F0FFFFFFFFFF17
:1028E000E00FFFC00000FFFFFFFFFE03FFFFC0007F
:1028F00000FFFFFFFFFFFFFFF9000000FFFFFFFFEA
:10290000FFFFFFFC0007C0FFFFFFFFFFFFFFFF000F
:1029100007E0FFFFFFFFFFFFFFFFE007F1FFFFFF03
:10292000FFFFFFFFFFFC07F9FFFFFFFFFFFFFFFFB8
:10293000FF03F9FFFFFFFFFFFFFFFFFF83F9FFFF2B
:10294000FFFFFFFFFFFFFFC3FFFFFFFFFFFFFFFFD3
:10295000FFFFE1FFFFFFFFFFFFFFFFFFFFF0BFFFF4
:10296000FFFFFFFFFFFFFFFBF83FFFFFFFFFFFFF42
:10297000FFFFF9F83FFFFFFFFFFFFFFFFF7EF0FFC4
:10298000FFFFFFFFFFFFFFFF8E03FFFFFFFFFFFFC4
:10299000FFFFFFE01FFFFFFFFFFFFFFFFFFFFFFF46
:1029A000FFFFFFFFFFFFFFFFFFFFFFFFFFFFFFFF37
:1029B000FFFFFFFFFFFF7FFFFFFFFF00007FFFFF25
:1029C000F87FFFFFFFFF80007FFFFFE07FFFFFFF3B
:1029D000FFC3FCFFFFFFF8FFFFFFFFFFC3FCFFFF8C
:1029E000FFF8FFFFFFFFFF87FDFFFFFFF1FFFFFF86
:1029F000FFFF87FFFFFFFFF1FFFFFFFFFF0FE7F381
:102A00000FFC23FC3FFFFFFF0FEF8007F003F01EDA
:102A1000007FFE1FCF8187C787C70C007FFE001F86
:102A2000C7C78FC79F0F0CFFFE001F878F1F8F1F09
:102A30000F1FFFFC3F9F8F8F1F8E001E3FFFFC7FED
:102A40003F0F1E3F1E3FFE3FFFF87FFF1F1C3F1C36
:102A50007FFC7FFFF8FFFF1E1C7E1C7FFC7FFFF0CA
:102A6000FFCE3E3C7E3C7FB8FFFFF0FF9E3C387CB3
:102A7000387E78FFFFE1FF3C7C787C783CF1FFFFFB
:102A8000E1F8387878101801F1FFFF000060203C71
:102A9000007C07807FFFFFFFFFFFFE1FFE1FFFFF81
:102AA000FF6D61726C696E66772E6F726700322EF1
:102AB000302E392E31001FFFFFFFFFFFFF600000A7
:102AC000000001FF400000000000FF800000000047
:102AD000007F83CF00000C303F87FF80000C301F49
:102AE000867980000C000F8C30C7838C30E78C30E7
:102AF000CFC7CC31F38C30DCECEC33B98C30D86CF4
:102B00006C33198C30D06C0C33198C30D86C0C337E
:102B1000198C30DC6C0E3B198C30CF7C079F198CE4
:102B200030C77C038F1940000000000002600000E5
:102B3000000000061FFFFFFFFFFFF870012C01904F
:102B4000012701B0012201C0011D01F0011801108F
:102B500002130130020E016002090190020401C05B
:102B600002FF000003FA004003F5008003F000D0EC
:102B700003EB002004E6007004E100E004DC004008
:102B800005D700C005D2004006CD00D006C80080A1
:102B900007C3003008BE00F008B900C009B400B097
:102BA0000AAF00B00BAA00D00CA500000EA0005088
:102BB0000F9B00C01096005012910000148C00C0B2
:102BC000158700B0178200B0197D00D01B78000077
:102BD0001E730040206E0090226900F024640040C3
:102BE000275F0090295A00E02B5500102E5000203E
:102BF000304B0010324600E033410090353C00106D
:102C000037370070383200A0392D00B03A2800A0C4
:102C10003B2300603C1E00103D1900903D14001045
:102C20003E0F00703E0A00C03E0500003F0000401D
:102C30003FFBFF803FF6FFC03FF1FF2020506C615B
:102C40006E6E657242756666657242797465733A36
:102C500020002046726565204D656D6F72793A20BF
:102C600000436F6D70696C65643A20536570203164
:102C70003420323032310A00204C61737420557098
:102C800064617465643A20323032312D30362D3231
:102C900037207C20417574686F723A202874686907
:102CA0007369736B65697468622C20456E64657224
:102CB0002D352050726F290A004D61726C696E20AB
:102CC000322E302E392E310A0020536F6674776110
:102CD00072652052657365740A00205761746368D9
:102CE000646F672052657365740A002042726F77C3
:102CF0006E206F75742052657365740A00204578E4
:102D00007465726E616C2052657365740A00506F51
:102D100077657255700A0073746172740A004732E5
:102D2000385859004D31303031006F6B0065727288
:102D30006F722077726974696E6720746F2066699C
:102D40006C650A00446F6E6520736176696E67205A
:102D500066696C652E0A004D323900456E647374E5
:102D60006F70730025532025632025632025632081
:102D7000256300205A3A0020593A0020583A00654D
:102D80006E6473746F7073206869743A2000000079
:102D900000010200090A0000000004030807000007
:102DA0000000000000000000000000000000004DD6
:102DB0006F76652025736D6D004D6F766520302E22
:102DC000316D6D004D6F766520316D6D004D6F7604
:102DD000652031306D6D004D6F76652041786973E7
:102DE000004578747275646572004D6F7665205A7F
:102DF000004D6F76652059004D6F76652058005064
:102E000072696E742066726F6D204D656469610031
:102E1000FFFFFF50726F62696E67204661696C65E3
:102E2000640A0050726F62696E67204661696C6562
:102E30006400205A3A200020593A2000426564205C
:102E4000583A2000456E6465722D352050726F200F
:102E500052656164792E005072696E74696E672ED6
:102E60002E2E005072696E74205061757365640077
:102E7000220A00556E6B6E6F776E20636F6D6D6109
:102E80006E643A202200204500205A00205900207C
:102E90004D3932205800DB0FC93F45BCDA3F8FB3B4
:102EA0000240FCF0274056946140FE4B9B4084A5B5
:102EB000D840E0231841346A5641E859974164DB11
:102EC000D5416E271742B4B75542CE1A9742C8AEC5
:102ED000D542B5885A43D40684BFA65FA7BF7443C2
:102EE000E0BF10B11AC01C2C58C0E8F697C0B84912
:102EF000D6C04E4E17C124D355C1802497C1A0B56A
:102F0000D5C1121A17C244AE55C2781797C26CAC1D
:102F1000D5C267885AC320746F6F206C6F6E6720AC
:102F2000657874727573696F6E2070726576656E00
:102F30007465640A0020636F6C6420657874727530
:102F400073696F6E2070726576656E7465640A00D1
:102F50006F6B0A00526573656E643A200020453A33
:102F600000205A3A0020593A00583A000000220046
:102F7000250028002B0000002100240027002A0043
:102F80000202020202020202040404040404040411
:102F90000303030303030303010101010101010111
:102FA0000102040810204080010204081020408023
:102FB0000102040810204080804020100804020113
:102FC0004572726F722077726974696E6720746FD0
:102FD00020454550524F4D210A004EDFD9E61124BD
:102FE0001FBECFEFD0E4DEBFCDBF12E0A0E0B1E066
:102FF000EAEEF9EE01E00BBF02C007900D92A83592
:10300000B107D9F723E1A8E5B2E001C01D92AF3CBA
:10301000B207E1F717E1CEEED7E104C02197FE0138
:103020000E943EF2CD3ED107C9F70E9416E00C94F3
:10303000E9F40C940000A0E1B0E0E1E2F8E10C94C6
:1030400067F28C01DC01ED91FC910280F381E02DAF
:10305000BE016F5F7F4F0995882309F45DC08981A8
:10306000807C91F56F81637070E0762F6627770F13
:10307000770F8885B4E08B9FC0011124682B792BD2
:1030800089858295869586958370682B6F5F7F4FC3
:1030900090E080E02A852370220F3B8537FB3327A1
:1030A00030F9232B3E813F70230F3327331F2750E6
:1030B000310904C0660F771F881F991F2A95D2F720
:1030C0006096E4E00C9483F2803419F56885669587
:1030D000669570E090E080E0CB01772766272A852F
:1030E000622B098510E0102F0027012E000C220B07
:1030F000330B602B712B822B932B6F5F7F4F8F4F86
:103100009F4F4AE0660F771F881F991F4A95D1F796
:10311000D7CF8BE0F801848360E070E0CB01D0CFA3
:103120000895FC0182810895FC0190E1AFEBB3E0CA
:1031300001900D929A95E1F70895CF92DF92EF9268
:10314000FF9280918D02882309F457C0C0908902B4
:10315000D0908A02E0908B02F0908C0220E030E068
:10316000A901C701B6010E9473EB882309F445C089
:1031700020E030E040E05FE3C701B6010E94D8EBF9
:103180009B01AC010E94D8EB2BED3FE049E450E4F9
:103190000E94D8EB9B01AC0160E070E080E89FE307
:1031A0000E9408F36B017C01C0928402D0928502D8
:1031B000E0928602F09287026091140170911501ED
:1031C000072E000C880B990B0E9479EB2AE037ED53
:1031D00043E25CE30E94D8EBA70196010E94D8EB82
:1031E00060937101709372018093730190937401E5
:1031F000FF90EF90DF90CF900895C12CD12C80E804
:10320000E82E8FE3F82ED0CF0F931F93E62FDC012B
:10321000FC910F2F10E030E020E0062E04C0369520
:103220002795179507950A94D2F700FF1CC00091C7
:10323000540310E030E020E004C036952795179540
:1032400007956A95D2F700FF0EC041E050E060E0BC
:1032500070E004C0440F551F661F771FEA95D2F730
:1032600040954F234C931F910F9108958F929F92F9
:10327000AF92BF92CF92DF92EF92FF92FC01C0809B
:10328000D180E280F38020E030E040E251E4C701E9
:10329000B6010E94D8EB20E030E048EC52E40E94F6
:1032A000D8EB4B015C0120E030E0A901C701B60179
:1032B0000E9473EB20E030E040EA50E487FF04C056
:1032C00020E030E040EA50ECC501B4010E9491F2E8
:1032D00020E030E040E251E40E9408F30E9470F3E5
:1032E0006B017C018BE2F7FE09C0F094E094D0946E
:1032F000C094C11CD11CE11CF11C8DE280938B0693
:10330000C701B60120E137E240E050E00E94C3F17E
:103310008AE0882E912CA12CB12CCA01B901A501FB
:1033200094010E94C3F1605D60938C06C701B601F1
:1033300028EE33E040E050E00E94C3F1CA01B90139
:10334000A50194010E94C3F1605D60938D06C701E1
:10335000B60124E630E040E050E00E94C3F1CA012B
:10336000B901A50194010E94C3F1605D60938E06CE
:103370008EE280938F06C701B601A50194010E94D9
:10338000C3F16B01CA01B901A50194010E94C3F107
:10339000605D60939006F0E3CF0EC09291068BE8DB
:1033A00096E0FF90EF90DF90CF90BF90AF909F900E
:1033B0008F9008958F929F92AF92BF92CF92DF929B
:1033C000EF92FF92FC01C080D180E280F38020E088
:1033D00030E040E251E4C701B6010E94D8EB20E0A2
:1033E00030E040E251E40E94D8EB4B015C0120E068
:1033F00030E0A901C701B6010E9473EB20E030E084
:1034000040EA50E487FF04C020E030E040EA50EC9E
:10341000C501B4010E9491F220E030E040E251E4A5
:103420000E9408F30E9470F39B018BE237FF05C0F6
:1034300022273327261B370B8DE280938C06C90188
:1034400068EE73E00E942BF2CB01EAE0F0E0BF01EE
:103450000E942BF2805D80938D06C90164E670E0C6
:103460000E942BF2CB01BF010E942BF2805D809362
:103470008E06C901BF010E942BF29C01CB01BF0146
:103480000E942BF2805D80938F068EE280939006DF
:10349000205D209391068CE896E0FF90EF90DF90FE
:1034A000CF90BF90AF909F908F900895282F81E389
:1034B000243609F080E280938E0690E22A3040F0B4
:1034C0003AE0822F632F0E94FEF10E94FEF1905D90
:1034D00090938F06822F6AE00E94FEF1905D909398
:1034E000900685E2809391068EE896E008956091BB
:1034F000140170911501072E000C880B990B0E9486
:1035000079EB2AE037ED43E25CE30E94D8EB2091AF
:1035100084023091850240918602509187020E9478
:10352000D8EB609371017093720180937301909353
:1035300074010895CF93DF93EC01CB01BA010E948F
:1035400079EB29EC38EC48EC5EE30E9408F320E0CC
:1035500030E040E05FE30E9491F20E9475F36883DF
:10356000DF91CF9108950E9479EB29EC38EC48EC7B
:103570005EE30E9408F320E030E040E05FE30E9459
:1035800091F20E9475F324E6629FC00111248158D4
:103590009F4F6FEF70E00E942BF2862F87CF8091B4
:1035A000AF06811104C0809135038093EE06089523
:1035B000809123138823C1F0815080932313EDE57C
:1035C000F1E1882351F08150990B2BE1289FF00104
:1035D000299FF00D1124EB5EFD4E8BE1A2E4B1E1D9
:1035E00001900D928A95E1F720912313211105C0D6
:1035F00080912E13806480932E1381E090E0A0E0F0
:10360000B0E0211103C080E090E0DC0180939606D9
:1036100090939706A0939806B09399061092880607
:1036200081E08093A60683E080936B0108954F921A
:103630005F926F927F928F929F92AF92BF92CF9242
:10364000DF92EF92FF926B017C0120E030E0A90154
:103650000E9473EB87FFA7C06DEB77E386E095EBE5
:10366000A70196010E9491F26B017C0120E030E0FD
:1036700040E251E40E94D8EB20E030E048EC52E414
:103680000E94D8EB4B015C0120E030E040E251ECBD
:10369000C701B6010E9473EB181654F420E030E025
:1036A00048EC52E4C701B6010E94F4F387FD8FC0D5
:1036B00020E030E0A901C701B6010E9473EB87FF4B
:1036C00077C060E070E080EA90ECA50194010E9470
:1036D00091F220E030E040E251E40E9408F30E94C1
:1036E00070F36B017C01F7FC68C020E137E240E039
:1036F00050E00E94C3F1CA01B9012AE030E040E085
:1037000050E00E94C3F1605D60938C06C701B60172
:1037100028EE33E040E050E00E94C3F19AE0892EA9
:10372000912CA12CB12CCA01B901A50194010E94D0
:10373000C3F1605D60938D06C701B60124E630E0F9
:1037400040E050E00E94C3F1CA01B901A501940113
:103750000E94C3F1605D60938E068EE280938F06B7
:10376000C701B601A50194010E94C3F16B01CA0112
:10377000B901A50194010E94C3F1605D60939006B8
:1037800080E3C80EC09291068CE896E0FF90EF901F
:10379000DF90CF90BF90AF909F908F907F906F9071
:1037A0005F904F9008956DEB77E386E095E358CFF7
:1037B00060E070E080EA90E488CFF094E094D094E8
:1037C000C094C11CD11CE11CF11C6DE29DCF20E016
:1037D00030E0A901C701B6010E9473EB87FF6BC0FF
:1037E00060E070E080EA90ECA50194010E9491F203
:1037F00020E030E040E251E40E9408F30E9470F3C0
:103800004B015C0120E030E0A901C701B6010E9434
:10381000F4F387FD0BC020E030E040E251E4C70143
:10382000B6010E9473EB60E287FD13C0B7FC48C08D
:10383000C501B40128EE33E040E050E00E94C3F13E
:10384000CA01B9012AE030E040E050E00E94C3F133
:10385000605D60938D06C501B40124E630E040E070
:1038600050E00E94C3F18AE0482E512C612C712C4B
:10387000CA01B901A30192010E94C3F1605D609386
:103880008E068EE280938F06C501B401A3019201DA
:103890000E94C3F16B01CA01B901A30192010E9408
:1038A000C3F1605D6093900680E3C80EC0929106FC
:1038B0008DE896E06BCF60E070E080EA90E494CF12
:1038C000B094A09490948094811C911CA11CB11C74
:1038D0006DE2BFCFCF92DF92EF92FF92CF93DF9353
:1038E00000D000D0CDB7DEB76B017C0120E030E026
:1038F000A9010E9473EB87FD1AC06DEB77E386E0A8
:1039000095E3A70196010E9491F269837A838B83E4
:103910009C83CE0101964EDD0F900F900F900F907B
:10392000DF91CF91FF90EF90DF90CF9008956DEBF6
:1039300077E386E095EBE5CF8F929F92AF92BF92AF
:10394000CF92DF92EF92FF926B017C0120E030E09A
:10395000A9010E9473EB87FDAAC06DEB77E386E0B7
:1039600095E3A70196010E9491F26B017C0120E092
:1039700030E0A9010E9473EB87FF9EC0C701B6012A
:10398000905820E030E040E251E40E94D8EB20E083
:1039900030E040E251E40E94D8EB20E030E040EA21
:1039A00050E40E9491F220E030E040E251E40E94B5
:1039B00008F30E9470F36B017C0180E280938B0618
:1039C00060E280E1C81687E2D806E104F1048CF0D9
:1039D000C701B60120E137E240E050E00E94C3F1A8
:1039E000CA01B9012AE030E040E050E00E94C3F192
:1039F000605D60938C0660E288EEC81683E0D806AE
:103A0000E104F1048CF0C701B60128EE33E040E098
:103A100050E00E94C3F1CA01B9012AE030E040E061
:103A200050E00E94C3F1605D60938D0660E284E621
:103A3000C816D104E104F1048CF0C701B60124E6F4
:103A400030E040E050E00E94C3F1CA01B9012AE031
:103A500030E040E050E00E94C3F1605D60938E066C
:103A60008AE0882E912CA12CB12CC701B601A501AA
:103A700094010E94C3F16B01CA01B901A50194012F
:103A80000E94C3F1605D60938F068EE28093900682
:103A900080E3C80EC09291068BE896E0FF90EF900D
:103AA000DF90CF90BF90AF909F908F9008956DEB77
:103AB00077E386E095EB55CF20E030E040E251E43B
:103AC000C701B60162CFCF93DF93EC01CB01BA01FE
:103AD0000E9479EB20E030E040E251E40E9408F3DC
:103AE000688379838A839B83DF91CF910895CF93F5
:103AF000DF93EC01CB01BA010E9479EB20E030E0CA
:103B000040E251E40E9408F3688379838A839B83AF
:103B1000DF91CF9108950E9479EB20E030E040E200
:103B200051E40E9408F308CFCF93DF93EC01CB015F
:103B3000BA010E9479EB20E030E048EC52E40E94A8
:103B400008F3688379838A839B83DF91CF910895FB
:103B5000CF93DF93EC01CB01BA010E9479EB20E017
:103B600030E048EC52E40E9408F3688379838A834A
:103B70009B83DF91CF910895CF92DF92EF92FF92D6
:103B8000CF93DF9300D000D0CDB7DEB70E9479EBA2
:103B900020E030E048EC52E40E9408F36B017C0125
:103BA00020E030E0A9010E9473EB2DEB37E346E003
:103BB00055E387FF04C02DEB37E346E055EBC70123
:103BC000B6010E9491F269837A838B839C83CE0134
:103BD00001964CDB0F900F900F900F90DF91CF91DB
:103BE000FF90EF90DF90CF9008950E9479EB20E056
:103BF00030E040E251E40E9408F36CCE0E9479EB81
:103C000020E030E048EC52E40E9408F310CDCF935E
:103C1000DF93EC01CB01BA010E9479EB0E9470F3B3
:103C200079836883DF91CF910895CF93DF93EC017F
:103C3000CB01BA010E9479EB20E030E04AE754E47E
:103C40000E9408F3688379838A839B83DF91CF91F5
:103C500008952CEA35EC47E25EE360912B03709106
:103C60002C0380912D0390912E030E9408F3609302
:103C7000E0027093E1028093E2029093E3020895E0
:103C80002CEA35EC47E25EE360912F03709130033C
:103C900080913103909132030E94D8EB6093DC0253
:103CA0007093DD028093DE029093DF02089580918D
:103CB000C3119091C411891B8F7089F48091C10642
:103CC000813069F090912E1392FB882780F992FF42
:103CD00007C097FB882780F991E08927089581E044
:103CE0000895CF93DF93C091D502D091D60220974B
:103CF00029F16091D1027091D2028091D30290910A
:103D0000D4020E9470F36E5F7F4F24976C177D077B
:103D1000ACF47093EB036093EA030E940BCC605EFB
:103D2000714B8F4F9F4F6093EC037093ED03809323
:103D3000EE039093EF03DF91CF9108951092EC037F
:103D40001092ED031092EE031092EF03F4CFC9CF5F
:103D5000CF93DF93EC018D810E94088C60E08B8112
:103D60000E9426CBDF91CF910895CF92DF92EF9200
:103D7000FF920F931F93CF938C01C62F69017A0195
:103D8000E7DF0E9417CC8C2F80640E94FC8B8F2D64
:103D90000E94FC8B8E2D0E94FC8B8D2D0E94FC8B33
:103DA0008C2D0E94FC8B87E8C11101C085E90E941F
:103DB000FC8BCC3011F40E94018CC0E00E94018C7D
:103DC000F801868387FF04C0CF3F11F0CF5FF6CFA5
:103DD000CF911F910F91FF90EF90DF90CF900895BA
:103DE00061E0FC0183810E9426CB8FEF0C94FC8B59
:103DF0000F931F93CF938C01ABDF0E9417CCC82F7A
:103E0000882369F08DEF0E94FC8B0E9417CCC82F8D
:103E1000C801E6DF8C2FCF911F910F91089582E1A9
:103E2000F8018483F5CFB0E0A0E0E9E1FFE10C9474
:103E30005FF2EC016A017B014801590120E030E0AA
:103E4000A90167E392DFA501980167E1CE018DDF4B
:103E500081111DC08F81833039F089E0CC0CDD1CCD
:103E6000EE1CFF1C8A95D1F7A701960169E1CE01EE
:103E70007CDF11E0882319F010E087E08C83CE010D
:103E8000AFDF812FCDB7DEB7ECE00C947BF289E099
:103E90008C8310E0F4CFCF93DF93EC016EBDFA0179
:103EA000CA019E5F0DB407FEFDCF20812EBD0DB46B
:103EB00007FEFDCF21812EBD3296E817F90791F755
:103EC0000DB407FEFDCF8FEF0E94FC8B8FEF0E9499
:103ED000FC8B0E94018C8E838F71853041F083E1D1
:103EE0008C83CE017DDF80E0DF91CF91089581E06A
:103EF000FBCF0F931F93CF93DF93EC018B0128DF50
:103F00000E9417CC81110BC085E18C8310E0CE019B
:103F100067DF812FDF91CF911F910F910895A80145
:103F20006CEFCE01B8DF182F882371F3F0CF0F9319
:103F30001F93CF93DF93EC0189018F81833039F098
:103F400089E0440F551F661F771F8A95D1F79A01A4
:103F5000AB0168E1CE0109DF811127C0A8016EEF36
:103F6000CE0199DF182F8823A9F00E9417CC182FB3
:103F70008823C1F020E030E0A9016DE0CE01F5DE3C
:103F8000882321F086E18C8310E004C00E94018C1C
:103F90008111F8CFCE0124DF812FDF91CF911F91C6
:103FA0000F91089587E18C83F5CF86E0ECCF1F93C6
:103FB000CF93DF93EC01CCDE20E030E0A9016CE090
:103FC000CE01D3DE11E0882319F010E083E08C836A
:103FD000CE0106DF812FDF91CF911F9108951F93AE
:103FE000CF93DF93EC018F81833039F089E0440F68
:103FF000551F661F771F8A95D1F79A01AB0162E1C1
:10400000CE01B3DE11E0882319F010E085E08C8347
:10401000CE01E6DE812FDF91CF911F9108958F921F
:104020009F92AF92BF92EF92FF920F931F93CF9305
:10403000DF938C01EB017A010E940BCC4B015C01F8
:104040002CE2820E21E0921EA11CB11C0E94018C68
:10405000F80186838F3F69F40E940BCC68197909B7
:104060008A099B0997FDF2CF81E1F8018483C0E0C2
:1040700021C08E3F69F5F1E0EF1AF1088FEF8EBD98
:10408000FE012FEF0DB407FEFDCF8EB581932EBD3F
:10409000CF018C1B9D0B8E159F05A0F30DB407FE61
:1040A000FDCF8EB5CE0DDF1D88830E94018C0E944E
:1040B000018CC1E0C80194DE8C2FDF91CF911F915C
:1040C0000F91FF90EF90BF90AF909F908F900895C9
:1040D0008FE0CBCF0F931F93CF93DF93EC018B0136
:1040E00037DE40E052E0B801CE0199DFDF91CF9199
:1040F0001F910F9108950F931F93CF93DF93EC01BE
:1041000089018F81833039F089E0440F551F661F84
:10411000771F8A95D1F79A01AB0161E1CE0125DEC7
:10412000882351F084E08C83CE015ADE80E0DF9159
:10413000CF911F910F91089540E052E0B801CE0158
:104140006EDFF5CFB0E0A0E0E8EAF0E20C945FF2B9
:10415000EC01162F1F821C824B830E940BCC6B013B
:104160007C0120EDC20E27E0D21EE11CF11CA895B7
:1041700061E08B810E9426CB8B810E94FAC3249A36
:104180002C9A279A2698259A81E00E94088C85E02F
:104190008D830E94088C0AE08FEF0E94FC8B0150F7
:1041A000D9F7A89520E030E0A90160E0CE01DDDD7F
:1041B0008E83813079F00E940BCC6C197D098E09B9
:1041C0009F0997FDEFCF81E08C83CE0109DE1A8233
:1041D00080E065C0A8952AEA31E040E050E068E060
:1041E000CE01C3DD853031F581E08F83A8958F81C5
:1041F000812C912C5401823029F4812C912CA12CFA
:1042000080E4B82E20E030E0A90167E3CE01ADDD07
:10421000A501940169E2CE01A8DD8E838823F1F027
:104220000E940BCC6C197D098E099F0997FDEACF7E
:104230008AE0CACF04E00E94018C8E830150D9F736
:104240008A3A11F482E0D1CF0E940BCC6C197D091F
:104250008E099F0997FDBFCF82E0B6CF8F81823054
:10426000B9F420E030E0A9016AE3CE017EDD8823C5
:1042700011F088E0A9CF0E94018C807C803C11F471
:1042800083E08F830E94018C0E94018C0E94018C2C
:10429000CE01A6DD81E08A83173030F41D83CDB7CF
:1042A000DEB7ECE00C947BF288E18C8391CF0F9326
:1042B0001F93CF93DF93EC018B0120E030E0A90145
:1042C00069E053DD882351F080E18C83CE0188DDE5
:1042D00080E0DF91CF911F910F91089540E150E070
:1042E000B801CE019CDEF5CFCF93C82FCB010E9441
:1042F000288687E896E00E94288688E796E0CC2307
:1043000011F08DE796E00E9428868AE00E942186BF
:10431000CF9108950F931F93CF93811110C0C42F95
:104320008B010E94588A88EB97E00E942886C8017A
:104330000E942886CC2319F08AE00E942186CF9122
:104340001F910F9108954091C20221E042276CE035
:1043500070E00C94CDC34091C20221E0422764E09A
:1043600070E00C94CDC34091C20221E0422761E08D
:1043700070E00C94CDC34091C20221E0422762E07C
:1043800070E00C94CDC34091C20221E0422761E06D
:1043900070E00C94CDC34091C20221E0422768E056
:1043A00070E00C94CDC34091C20221E042276CE042
:1043B00070E00C94CDC341E061E070E00C94CDC39B
:1043C0004091C20221E042270C94CDC362E070E02C
:1043D0000C94B5CB6CE070E00C94B5CB64E070E06D
:1043E0000C94B5CB61E070E00C94B5CB61E070E06B
:1043F0000C94B5CB6CE070E00C94B5CB20E030E0D1
:10440000A901BC0183E091E10C94E3C4A4E0B0E015
:10441000ECE0F2E20C9469F284EF91E0A0E0B0E00D
:1044200089839A83AB83BC83BE016F5F7F4F88E72C
:104430000E94E9842496E2E00C9485F2B0E0A0E0CA
:10444000E4E2F2E20C9469F220E24F8158856E8139
:104450008D810E94B7C8E2E00C9485F26FEF8091E5
:1044600035030C9403DF67E274E482E00C9408DD0A
:104470006BE274E481E00C9408DD6FE274E480E0A8
:104480000C9408DD6DE176E483E00C9408DD809106
:104490006B01882351F0609128037091290330E06B
:1044A00020E041E081E00C94E8750895CF92DF921E
:1044B000EF92FF92CF93DF9300D000D0CDB7DEB75D
:1044C0000E9479EB20E030E04AE754E40E9408F3D0
:1044D0006B017C0120E030E0A9010E9473EB2DEB21
:1044E00037E346E055E387FF04C02DEB37E346E0B2
:1044F00055EBC701B6010E9491F269837A838B83E1
:104500009C83CE0101960E94E6C90F900F900F90F8
:104510000F90DF91CF91FF90EF90DF90CF900895B3
:10452000CF93DF93EC010E9412D41B82DF91CF91D5
:104530000895CF93DF93EC01462F41706C857D8504
:104540008E859F850E9474D0882351F0888920E24F
:10455000829FC00111248D5F904FDF91CF9108950C
:1045600090E080E0FACFCF93DF93EB01FC01238151
:10457000211104C080E0DF91CF91089522502230B4
:1045800028F48FE28883198281E0F5CF60E0D1DFE3
:10459000009781F3DC0160E080E09EE22D91203203
:1045A00099F0883031F49E01260F311DF901908376
:1045B0006F5F9E01260F311DAD0141505109FA0177
:1045C0004081F90140836F5F8F5F8B3039F7FE01C7
:1045D000E60FF11D1082D8CFACE0B0E0E2EFF2E2DE
:1045E0000C945AF25C01DC0159968D909C90F40178
:1045F00081859285A385B4859C01AD012F5F3F4FD6
:104600004F4F5F4F29873A874B875C87D5011496B8
:104610004D905D906D907C9017974114510461040A
:10462000710409F459C0BFEF4B1A5B0A6B0A7B0A8D
:10463000312C730162011D821E821F821886F401D3
:1046400081859285A385B4852D813E814F815885D2
:10465000281739074A075B0708F056C089859A85ED
:10466000AB85BC858C159D05AE05BF0550F482E079
:10467000C82ED12CE12CF12C92E0492E512C612C2A
:10468000712C9E012F5F3F4FB701A601C4010E940C
:1046900086D28823C9F189819A81AB81BC81892B1B
:1046A0008A2B8B2B01F1260137019FEF491A590AFA
:1046B000690A790A2D813E814F8158852F5F3F4FCE
:1046C0004F4F5F4F2D833E834F8358873FEFC31A71
:1046D000D30AE30AF30AB3CF40805180628073802B
:1046E00033243394A6CFC414D504E604F70411F799
:1046F0000FEF1FEF2FEF3FE0B701A601C4010E94AB
:104700000CD2782E811106C0712C872D2C96E1E1F8
:104710000C9476F2F50144815581668177814115CB
:1047200051056105710539F097018601C4010E94A8
:104730000CD2882349F3D5011496CD92DD92ED92E7
:10474000FC921797332051F0D701C6010196A11DA5
:10475000B11DF40180839183A283B383F501858920
:104760009689A789B08D892B8A2B8B2B71F6C58AE8
:10477000D68AE78AF08E818180688183C6CF40E047
:1047800050E0BA010C945BD4FC0123812111C8CE06
:104790000895682F70E090E080E00C94CEC28F9274
:1047A0009F92AF92BF92CF92DF92EF92FF92CF9300
:1047B0006B017C01B42E20E030E0A9010E9473EB74
:1047C00087FF07C08DE20E942186F7FAF094F7F880
:1047D000F094C0E060E070E080E09FE3CB1541F032
:1047E0002DEC3CEC4CEC5DE30E94D8EBCF5FF6CFB8
:1047F000A70196010E9491F26B017C010E9475F362
:104800004B015C010E94CEC2CC2371F1C501B40101
:104810000E9477EB9B01AC01C701B6010E9490F2A8
:104820006B017C018EE20E942186C150E8F020E0FD
:1048300030E040E251E4C701B6010E94D8EB6B01C1
:104840007C010E9475F34B015C010E94CEC2C50140
:10485000B4010E9477EB9B01AC01C701B6010E9435
:1048600090F26B017C01E1CFCF91FF90EF90DF9050
:10487000CF90BF90AF909F908F900895EF92FF924E
:104880000F931F93CF937B018A01C2E48F3F09F0FE
:10489000C4E580E20E9421868C2F0E9421868AE353
:1048A0000E942186F701608171818281938142E0BB
:1048B00076DF87E993E10E942886F80160817181A3
:1048C0008281938142E06BDF62E070E080E090E003
:1048D0000E9482CBCF911F910F91FF90EF9008958E
:1048E000A8E0B0E0E6E7F4E20C9468F2182F6091DB
:1048F000D5027091D602072E000C880B990B0E94EE
:1049000079EB6D837E838F8398878091D10290911C
:10491000D202A091D302B091D40289839A83AB834F
:10492000BC83AE014B5F5F4FBE016F5F7F4F8AEF6D
:10493000A5DF6091720670917306072E000C880B3C
:10494000990B0E9479EB6D837E838F83988780918A
:104950006E0690916F06A0917006B09171068983E2
:104960009A83AB83BC83AE014B5F5F4FBE016F5F29
:104970007F4F8FEF83DF609174061F3F39F087E12F
:104980001802F0011124E353FD4F628570E08FE9B6
:1049900093E10E948E8A6091740670E08AE993E147
:1049A0000E948E8A2896E3E00C9484F20F930FB74E
:1049B0000F9300916E000B7F00936E0078940F931D
:1049C0000BB70F930CB70F921F922F933F934F93F8
:1049D0005F936F937F938F939F93AF93BF93EF9367
:1049E000FF9311240E94A75DFF91EF91BF91AF91BA
:1049F0009F918F917F916F915F914F913F912F91F7
:104A00001F900F900CBF0F910BBF0F910460F89493
:104A100000936E000F910FBF0F911895CF93DF9306
:104A20001092C902EDECF2E0118610861092EC03B0
:104A30001092ED031092EE031092EF0312865D9830
:104A4000CAE6D6E0198618860E94156B1A865C980D
:104A5000DF91CF910895B0E0A0E0E1E3F5E20C949E
:104A60005FF2B0E4A0E06A2F70E0AB014B0F511D84
:104A700055954795411111C0EDE3FBE265917491A5
:104A8000072E000C880B990B0E9479EBCDB7DEB78F
:104A9000ECE00C947BF2B42FE8CFA41711F0B41320
:104AA00003C0E9E3FCE2EACF9A0121503109220F69
:104AB000331F220F331FF901E55CF44DE590F490AC
:104AC000F901E15CF44DC591D4918E159F051CF35D
:104AD000A42FC817D9070CF4C6CFF901E35CF44D35
:104AE00005911491F901EF5BF44DC590D490BC0190
:104AF0006E197F09072E000C880B990B0E9479EB29
:104B00004B015C01B601601B710B072E000C880B7A
:104B1000990B0E9479EB9B01AC01C501B4010E9485
:104B2000D8EB4B015C01BE016E197F09072E000C0A
:104B3000880B990B0E9479EB9B01AC01C501B40174
:104B40000E9408F36B017C01B801012E000C880B58
:104B5000990B0E9479EB9B01AC01C701B6010E9441
:104B600091F294CFEF92FF920F931F93CF93C82FA0
:104B70007B018A01809169068330B0F00E94558ADA
:104B8000C7010E9428868DEF92E10E942886C7FD0A
:104B900021C06C2F0C2E000C770B880B990B0E94F8
:104BA0002BC38AE00E94218639DFA8958091CF032C
:104BB000811115C081E08093CF0382E08093690664
:104BC00062EF72E1CF3F11F066EF72E140E0C801A1
:104BD0000E94338B89EF92E10E942886E2CFCF9129
:104BE0001F910F91FF90EF900895B0E0A0E0EBEFE0
:104BF000F5E20C945BF2EC016B014A01B22EFA0172
:104C00004080518062807380A30192016D817E811A
:104C10008F8198850E9473EB8823A1F04D825E827C
:104C20006F827886AA24A39420E030E0A901F401E1
:104C300060817181828193810E94F4F318160CF0D7
:104C4000A12CAC828C818230A1F0833009F44FC05A
:104C50008130D1F52D813E814F815885F6016081EB
:104C60007181828193810E9473EB87FD2DC082E068
:104C70008C83B7010F2C000C880B990B0E9479EBE9
:104C80009B01AC016D817E818F8198850E9490F29D
:104C90009B01AC01F60160817181828193810E9448
:104CA000F4F387FD16C00E940BCC6B017C019801C8
:104CB000A8EEB3E00E94EFF1C60ED71EE81EF91E63
:104CC000C882D982EA82FB82CDB7DEB7E0E10C94DC
:104CD00077F20E940BCC088119812A813B81601BED
:104CE000710B820B930B97FDEFCF83E08C8347E72B
:104CF00053E167E873E18B2D35DFE6CFCF93DF9388
:104D0000A8958091CF029091D0020E9446C36093F3
:104D1000D1027093D2028093D3029093D4028091F7
:104D20006C0690916D0697DE60936E0670936F0629
:104D30008093700690937106C091CF02D091D002FB
:104D40008091640190916501C817D90734F449E353
:104D500053E166E473E180E005DF8091D502909134
:104D6000D602181619066CF48091620190916301C5
:104D70008C179D0734F448E553E165E673E180E064
:104D8000F1DE20916C0630916D06809113069091B2
:104D900014062817390734F449E353E166E473E154
:104DA0008FEFE0DE80917206909173061816190657
:104DB0008CF420916C0630916D0680916001909189
:104DC00061018217930734F448E553E165E673E126
:104DD0008FEFC8DEDF91CF910895A3E1B0E0E3EF5C
:104DE000F6E20C9459F280916906811106C0A895EB
:104DF0006396E2E10C9475F2E8C28091E9038111B7
:104E0000F7CF81E08093E9038091CA02811107C046
:104E10001092E9036396E2E10C9475F2D6C26EDF5C
:104E20001092CA020E940BCC2B013C0160916801D8
:104E300070916901072E000C880B990B0E9479EB89
:104E40009B01AC016091D1027091D2028091D3029A
:104E50009091D4020E94F4F318160CF459C2609198
:104E6000D5027091D602072E000C880B990B0E9478
:104E700079EB69837A838B839C8324E0E22EF12C87
:104E800008E210E020E0AE014F5F5F4F61ED72E09D
:104E900088E791E1AADEC090D102D090D202E090E2
:104EA000D302F090D4026091660170916701072EE1
:104EB000000C880B990B0E9479EB9B01AC01C70198
:104EC000B6010E94F4F318160CF01DC16091680140
:104ED00070916901072E000C880B990B0E9479EBE9
:104EE0009B01AC01C701B6010E9473EB87FF0BC1A8
:104EF0006091D5027091D6026115710509F424C242
:104F0000072E000C880B990B0E9479EBA7019601E4
:104F10000E9490F24B015C0120E030E040E251EC55
:104F20000E9473EB87FD10C220E030E040E251E4C4
:104F3000C501B4010E94F4F318160CF432C280913A
:104F4000E403811132C22091DC033091DD034091F2
:104F5000DE035091DF032D833E834F83588780917A
:104F6000E0039091E103A091E203B091E30389870C
:104F70009A87AB87BC87A70196016091D003709197
:104F8000D1038091D2039091D3030E9490F220919B
:104F9000E0023091E1024091E2025091E3020E946E
:104FA000D8EB2D813E814F8158850E9490F220EDF3
:104FB0003CEC4CE45DE30E94D8EB2D813E814F81B7
:104FC00058850E9491F26D837E838F8398876093CA
:104FD000DC037093DD038093DE039093DF03209165
:104FE000DC023091DD024091DE025091DF022D871C
:104FF0003E874F87588B29853A854B855C85C5014F
:10500000B4010E9491F21B018C0120E030E0A90163
:105010000E9473EB87FDD4C12D853E854F8558894D
:1050200060E070E08FE793E40E9408F36987798B72
:105030008A8B9B8B9101A8010E9473EB87FF04C0B0
:10504000298439880A891B89C101D8018093E0032A
:105050009093E103A093E203B093E3032091D8027D
:105060003091D9024091DA025091DB02C501B401BE
:105070000E94D8EB4B015C018092D4039092D5033F
:10508000A092D603B092D7039101A8016D857E85C9
:105090008F8598890E94D8EB9B01AC012093D8039F
:1050A0003093D9034093DA035093DB03C501B40175
:1050B0000E9491F22D813E814F8158850E9491F28C
:1050C00020E030E0A9010E9491F24B015C0120E058
:1050D00030E0A9010E9473EB87FD39C120E030E088
:1050E0004FE753E4C501B4010E94F4F318160CF025
:1050F00004C16FE7C092D003D092D103E092D203F3
:10510000F092D30301C060E06093D7028091EC037A
:105110009091ED03A091EE03B091EF030097A105EC
:10512000B10569F1A3019201281B390B4A0B5B0BF6
:10513000DA01C901B7FD23C0C701B6010E9470F3AF
:105140002091EA033091EB03621773070CF4EEC071
:105150002091D5023091D6022115310541F06E5FC4
:105160007F4F24503109621773070CF4F4C010927A
:10517000EC031092ED031092EE031092EF0320E087
:1051800030E04AEF52E460916E0670916F068091B4
:105190007006909171060E94F4F318160CF4BFC0CB
:1051A0008091C5029091C602A091C702B091C80239
:1051B0000097A105B10599F1A3019201281B390BB4
:1051C0004A0B5B0BDA01C901B7FD29C060916E067D
:1051D00070916F0680917006909171060E9470F335
:1051E0002091C3023091C402621773070CF4A5C06A
:1051F00020917206309173062115310541F06E5FE2
:105200007F4F24503109621773070CF4B7C0109216
:10521000C5021092C6021092C7021092C802809175
:10522000E5039091E603A091E703B091E803A301A1
:105230009201281B390B4A0B5B0BDA01C901B7FD40
:10524000E7CDD301C20188579C4EAF4FBF4F80932B
:10525000E5039093E603A093E703B093E80360911E
:10526000720670917306072E000C880B990B0E9432
:1052700079EB69837A838B839C8382E0E82EF12C1F
:1052800004E110E02FEFAE014F5F5F4F6EE676E076
:1052900081E891E1AADCC0906E06D0906F06E090A4
:1052A0007006F090710620E030E040EA50E4C7015B
:1052B000B6010E94F4F387FD27C020E030E04AEFFA
:1052C00052E4C701B6010E9473EB1816ECF060912E
:1052D000720670917306072E000C880B990B0E94C2
:1052E00079EB9B01AC01C701B6010E9473EB87FF0C
:1052F00030C08FE7809374068BCDC501B4010E9446
:1053000070F375956795F6CE109274065C9880CD13
:1053100049E353E166E473E180E024DCA0CD49E396
:1053200053E166E473E18FEF1DDC3ACF4BE153E1CB
:105330006AE273E180E016DC22CF4BE153E16AE2DE
:1053400073E18FEF0FDC6BCF81E08093E40360E0CB
:10535000D1CE80E0CFCF7093EB036093EA030E943D
:105360000BCC605E714B8F4F9F4F6093EC0370933B
:10537000ED038093EE039093EF0301CF7093C4028B
:105380006093C3020E940BCC605A75418F4F9F4FB0
:105390006093C5027093C6028093C7029093C802BF
:1053A0003ECF81E08093E403A4CE1092E4031986FB
:1053B0001A861B861C861D821E821F821886DBCDE4
:1053C000212C312C00E010E03FCECF93DF93EC0195
:1053D000488159816A817B8188EE92E10E943586FD
:1053E0004C815D816E817F8185E69FE20E943586DA
:1053F000488559856A857B8581E69FE20E943586CE
:105400008AE00E942186DF91CF910895BC0120910E
:10541000B0033091B1034091B0035091B103241710
:10542000350731F481E02617370709F080E0089549
:105430009A01F1CF0F930FB70F9300916E000F9366
:105440000B7F00936E0000916F000D7F00936F0043
:105450000F930BB70F930CB70F921F922F933F939D
:105460004F935F936F937F938F939F93AF93BF936C
:10547000EF93FF93112449D4FF91EF91BF91AF9126
:105480009F918F917F916F915F914F913F912F915C
:105490001F900F900CBF0F910BBF0F910260F894FB
:1054A00000936F000F9100936E000F910FBF0F914B
:1054B000189500008091170680FF24C045988FEF53
:1054C0008093660380911706869580FF1EC04798DB
:1054D0008FEF80936703809117068695869580FFEE
:1054E00017C02A9A8FEF80936803809117068695DC
:1054F0008695869580FF0FC0289A8FEF8093690369
:1055000000000895459A81E0DBCF479A81E0E1CF22
:105510002A9881E0E8CF289881E0F0CFCF92DF92FF
:10552000EF92FF926A017B010E942886C701B601B3
:105530000E94CEC2FF90EF90DF90CF900895CF925F
:10554000DF92EF92FF92CF93DF93EC0108960E94D7
:10555000037A6B017C0120E030E0A9010E9473EB2B
:1055600020E030E0A901882359F0CE010E947D7A25
:105570009B01AC01C701B6010E94D8EB9B01AC01B5
:10558000688579858A859B850E9490F268877987EE
:105590008A879B87DF91CF91FF90EF90DF90CF902C
:1055A0000895843021E0920714F084E091E0909314
:1055B000D6028093D5020C94711E80913503909190
:1055C0003603EFCFCF93DF9380918802811119C00A
:1055D000C0911601D0911701219720E030E040E002
:1055E0005FE36091D1027091D2028091D3029091D9
:1055F000D4020E9491F20E9470F321E06C177D07A3
:105600000CF020E0822FDF91CF910895B0E0A0E070
:10561000ECE0FBE20C9461F2C2EBDBE006ED16E09D
:1056200082ECA82E8BE0B82EC12CD12C7601C3942D
:1056300069917991899199910E9477EB28893989AB
:105640004A895B890E94D8EB0E9475F3F801619347
:105650007193819391938F01C616D706E806F906D8
:1056600010F46B017C01AC16BD0611F76FEF7FEFF4
:10567000CB01A70196010E94A1F12093E606309389
:10568000E7064093E8065093E906CDB7DEB7EAE0B7
:105690000C947DF20F931F93CF93DF9306EC1BE0E6
:1056A000CFEED6E0F80121913191419151918F01D6
:1056B00060E070E080E89FE30E9408F369937993CB
:1056C00089939993F6E0CF3FDF0761F70E940EC5FB
:1056D0009DDFDF91CF911F910F910895DBCFDACF3E
:1056E000D9CFD8CF9091C3118091C411981306C01F
:1056F0008091FF0690910007892B21F080E00E94A5
:10570000238CF0CF08959091C3118091C411981308
:1057100008C08091FF0690910007892B11F40C942A
:10572000F78380E00E94238CEECFCF92DF92EF923E
:10573000FF92CF93DF932091CD06222329F1EC0134
:1057400008960E94037A6B017C0120E030E0A901F9
:105750000E9473EB20E030E0A901882359F0CE01CC
:105760000E947D7A9B01AC01C701B6010E94D8EB73
:105770009B01AC01688579858A859B850E9491F2A1
:10578000688779878A879B87DF91CF91FF90EF9019
:10579000DF90CF900895AAE1B0E0E1EDFBE20C9438
:1057A0005BF29A8F898F5B018A01DC01D6966D913D
:1057B0007D918D919C91D9970E9477EB6B017C0133
:1057C000F50120813181428153810E94D8EB0E94F2
:1057D000F5F22B013C01D8012D913D914D915C9149
:1057E000C701B6010E94D8EB0E94F5F24B015C01A3
:1057F000C301B2010E9475F3698B7A8B8B8B9C8BF2
:10580000683771058105910540F428E730E040E0F4
:1058100050E0298B3A8B4B8B5C8BC501B4010E9405
:1058200075F36D877E878F87988B68377105810543
:10583000910540F488E790E0A0E0B0E08D879E8776
:10584000AF87B88BE98DFA8DEE5BFF4F20813181F8
:105850004281538129833A834B835C83CA01B90116
:105860000E9479EB2B013C0169897A898B899C899B
:105870000E9477EB69877A878B879C8720E030E0EE
:10588000A901C301B2010E9473EB882309F428C166
:10589000A7019601C701B6010E94D8EB4B015C013C
:1058A00029853A854B855C85CA01B9010E94D8EBF0
:1058B0009B01AC01C501B4010E9490F24B015C0157
:1058C000A3019201C301B2010E9491F29B01AC01BC
:1058D000C501B4010E9408F30E94F5F20E9475F31D
:1058E0006D837E838F83988769817A818B819C8188
:1058F00090958095709561957F4F8F4F9F4F0E9437
:1059000079EB4B015C016D857E858F8598890E94BE
:1059100077EB69837A838B839C8320E030E0A90155
:10592000C501B4010E9473EB882309F4DDC029810D
:105930003A814B815C81CA01B9010E94D8EB6D8B21
:105940007E8B8F8B988FA7019601C701B6010E94AD
:10595000D8EB9B01AC016D897E898F89988D0E945F
:1059600090F26B017C01A5019401C501B4010E9474
:1059700091F29B01AC01C701B6010E9408F30E949D
:10598000A1F3A98DBA8D95968D909D90AD90BC9008
:105990009897750164012D813E814F815885C21A07
:1059A000D30AE40AF50A0E9475F3C61AD70AE80A70
:1059B000F90AF7FE6EC020E030E0A901C301B20190
:1059C0000E9473EB882309F493C0C501B4010E94BF
:1059D00077EB6B017C01A3019201C301B2010E942C
:1059E00091F29B01AC01C701B6010E94D8EB6B019B
:1059F0007C0129853A854B855C85CA01B9010E94E5
:105A0000D8EB9B01AC01C701B6010E9490F26B017B
:105A10007C0129813A814B815C81CA01B9010E94D4
:105A2000D8EB9B01AC01C701B6010E9491F26B015A
:105A30007C0120E030E040E850E4C301B2010E9464
:105A4000D8EB9B01AC01C701B6010E9408F30E948C
:105A5000F5F26B017C0120E030E0A9010E94F4F333
:105A600018161CF0C12CD12C7601C701B6010E947A
:105A700075F36D837E838F83988786169706A806B5
:105A8000B90620F48D829E82AF82B886C12CD12CBB
:105A900076018D819E81AF81B885E98DFA8D81A7D0
:105AA00092A7A3A7B4A7C80ED91EEA1EFB1EC5A6BF
:105AB000D6A6E7A6F0AA29893A894B895C8922AF44
:105AC00033AF44AF55AFFE962D853E854F8558893F
:105AD00020833183428353836A96E0E10C9477F20A
